:020000040000fa
:080000000002040000000000f2
:020000040000fa
:0400080004030000ed
:020000040000fa
:04000c0004030000e9
:020000040000fa
:0400100004030000e5
:020000040000fa
:0400140004030000e1
:020000040000fa
:0400180004030000dd
:020000040000fa
:04001c0004030000d9
:020000040000fa
:0400200004030000d5
:020000040000fa
:0400240004030000d1
:020000040000fa
:0400280004030000cd
:020000040000fa
:04002c0004030000c9
:020000040000fa
:0400300004030000c5
:020000040000fa
:04003400c8020000fe
:020000040000fa
:0400380004030000bd
:020000040000fa
:04003c0004030000b9
:020000040000fa
:0400400004030000b5
:020000040000fa
:0400440004030000b1
:020000040000fa
:0400480004030000ad
:020000040000fa
:04004c0004030000a9
:020000040000fa
:0400500004030000a5
:020000040000fa
:0400540004030000a1
:020000040000fa
:04005800040300009d
:020000040000fa
:04005c000403000099
:020000040000fa
:040060000403000095
:020000040000fa
:040064000403000091
:020000040000fa
:04006800040300008d
:020000040000fa
:04006c000403000089
:020000040000fa
:040070000403000085
:020000040000fa
:040074000403000081
:020000040000fa
:04007800040300007d
:020000040000fa
:04007c000403000079
:020000040000fa
:040080000403000075
:020000040000fa
:040084000403000071
:020000040000fa
:04008800040300006d
:020000040000fa
:04008c000403000069
:020000040000fa
:040090000403000065
:020000040000fa
:040094000403000061
:020000040000fa
:04009800040300005d
:020000040000fa
:04009c000403000059
:020000040000fa
:0400a0000403000055
:020000040000fa
:0400a4000403000051
:020000040000fa
:0400a800040300004d
:020000040000fa
:0400ac000403000049
:020000040000fa
:0400b0000403000045
:020000040000fa
:0400b4000403000041
:020000040000fa
:0400b800040300003d
:020000040000fa
:0400bc000403000039
:020000040000fa
:0400c0000403000035
:020000040000fa
:0400c4000403000031
:020000040000fa
:0400c800040300002d
:020000040000fa
:0400cc000403000029
:020000040000fa
:0400d0000403000025
:020000040000fa
:0400d4000403000021
:020000040000fa
:0400d800040300001d
:020000040000fa
:0400dc000403000019
:020000040000fa
:0400e0000403000015
:020000040000fa
:0400e4000403000011
:020000040000fa
:0400e800040300000d
:020000040000fa
:0400ec000403000009
:020000040000fa
:0400f0000403000005
:020000040000fa
:0400f4000403000001
:020000040000fa
:0400f80004030000fd
:020000040000fa
:0400fc0004030000f9
:020000040000fa
:0401000004030000f4
:020000040000fa
:0401040004030000f0
:020000040000fa
:0401080004030000ec
:020000040000fa
:04010c0004030000e8
:020000040000fa
:0401100004030000e4
:020000040000fa
:0401140004030000e0
:020000040000fa
:0401180004030000dc
:020000040000fa
:04011c0004030000d8
:020000040000fa
:0401200004030000d4
:020000040000fa
:0401240004030000d0
:020000040000fa
:0401280004030000cc
:020000040000fa
:04012c0004030000c8
:020000040000fa
:0401300004030000c4
:020000040000fa
:0401340004030000c0
:020000040000fa
:0401380004030000bc
:020000040000fa
:04013c0004030000b8
:020000040000fa
:0401400004030000b4
:020000040000fa
:0401440004030000b0
:020000040000fa
:0401480004030000ac
:020000040000fa
:04014c0004030000a8
:020000040000fa
:0401500004030000a4
:020000040000fa
:0401540004030000a0
:020000040000fa
:04015800040300009c
:020000040000fa
:04015c000403000098
:020000040000fa
:040160000403000094
:020000040000fa
:040164000403000090
:020000040000fa
:0402080004030000eb
:020000040000fa
:04020c0004030000e7
:020000040000fa
:0402100004030000e3
:020000040000fa
:0402140004030000df
:020000040000fa
:0402180004030000db
:020000040000fa
:04021c0004030000d7
:020000040000fa
:0402200004030000d3
:020000040000fa
:0402240004030000cf
:020000040000fa
:0402280004030000cb
:020000040000fa
:04022c0004030000c7
:020000040000fa
:0402300004030000c3
:020000040000fa
:04023400c8020000fc
:020000040000fa
:0402380004030000bb
:020000040000fa
:04023c0004030000b7
:020000040000fa
:0402400004030000b3
:020000040000fa
:0402440004030000af
:020000040000fa
:0402480004030000ab
:020000040000fa
:04024c0004030000a7
:020000040000fa
:0402500004030000a3
:020000040000fa
:04025400040300009f
:020000040000fa
:04025800040300009b
:020000040000fa
:04025c000403000097
:020000040000fa
:040260000403000093
:020000040000fa
:04026400040300008f
:020000040000fa
:04026800040300008b
:020000040000fa
:04026c000403000087
:020000040000fa
:040270000403000083
:020000040000fa
:04027400040300007f
:020000040000fa
:04027800040300007b
:020000040000fa
:04027c000403000077
:020000040000fa
:040280000403000073
:020000040000fa
:04028400040300006f
:020000040000fa
:04028800040300006b
:020000040000fa
:04028c000403000067
:020000040000fa
:040290000403000063
:020000040000fa
:04029400040300005f
:020000040000fa
:04029800040300005b
:020000040000fa
:04029c000403000057
:020000040000fa
:0402a0000403000053
:020000040000fa
:0402a400040300004f
:020000040000fa
:0402a800040300004b
:020000040000fa
:0402ac000403000047
:020000040000fa
:0402b0000403000043
:020000040000fa
:0402b400040300003f
:020000040000fa
:0402b800040300003b
:020000040000fa
:0402bc000403000037
:020000040000fa
:0402c0000403000033
:020000040000fa
:0402c400040300002f
:020000040000fa
:0402c800040300002b
:020000040000fa
:0402cc000403000027
:020000040000fa
:0402d0000403000023
:020000040000fa
:0402d400040300001f
:020000040000fa
:0402d800040300001b
:020000040000fa
:0402dc000403000017
:020000040000fa
:0402e0000403000013
:020000040000fa
:0402e400040300000f
:020000040000fa
:0402e800040300000b
:020000040000fa
:0402ec000403000007
:020000040000fa
:0402f0000403000003
:020000040000fa
:0402f40004030000ff
:020000040000fa
:0402f80004030000fb
:020000040000fa
:0402fc0004030000f7
:020000040000fa
:0403000004030000f2
:020000040000fa
:0403040004030000ee
:020000040000fa
:0403080004030000ea
:020000040000fa
:04030c0004030000e6
:020000040000fa
:0403100004030000e2
:020000040000fa
:0403140004030000de
:020000040000fa
:0403180004030000da
:020000040000fa
:04031c0004030000d6
:020000040000fa
:0403200004030000d2
:020000040000fa
:0403240004030000ce
:020000040000fa
:0403280004030000ca
:020000040000fa
:04032c0004030000c6
:020000040000fa
:0403300004030000c2
:020000040000fa
:0403340004030000be
:020000040000fa
:0403380004030000ba
:020000040000fa
:04033c0004030000b6
:020000040000fa
:0403400004030000b2
:020000040000fa
:0403440004030000ae
:020000040000fa
:0403480004030000aa
:020000040000fa
:04034c0004030000a6
:020000040000fa
:0403500004030000a2
:020000040000fa
:04035400040300009e
:020000040000fa
:04035800040300009a
:020000040000fa
:04035c000403000096
:020000040000fa
:040360000403000092
:020000040000fa
:04036400040300008e
:020000040000fa
:100400002f8020000e7f24000e01880000000000d5
:10041000000020000000e000020032000001200087
:100420002002880014000700790007000000e000a7
:1004300003003a00803b200001002000020037004a
:100440000000200001002000810f70000100320038
:1004500014000700000020000000e000020032004d
:1004600000000200000000008c03020000000000f9
:100470000040da000000fe004440a9000000200017
:100480000000e0000300320000002000a00188000e
:100490004440a800000006008a1f78008b1f7800e7
:1004a0000000060091018800800478000000eb0045
:1004b0001a003700e284440032a0b4009905ba0063
:1004c000e284440032a0b4009906ba00e2844400f9
:1004d00032a0b4000006eb00476fde00fd07b2005b
:1004e000636ce10003003a00ebff07000000eb0043
:1004f0000a003700606ce10004003a00005deb0088
:100500008b05e900fdff3e00040037006168e10053
:10051000010032000086eb000b00070019c7ba008b
:100520001905ba000e04e00003003a000a00e000da
:10053000e0ff3a0000000600fe07b2009e018800be
:100540008a047800f5ff3700395dba008b05e900b1
:100550000c003200295dba008b05e900080032006a
:100560000c00e00003003a00e284440032a0b40032
:10057000f5ff370019ddba008b05e900faff3a00f4
:100580008904e800e184440032a0b40000000600c1
:10059000809fbe003400f80000002000a001880009
:1005a0000000fa008460a900601680004800de00a8
:1005b0006140600000c0ea00614060000080fb0014
:1005c000610060004800dd00611680000180a1002c
:1005d000010070006016880000408000e80f5000a5
:1005e00004003c00004080000000e800004088005b
:1005f000010037000028ef000080fa003400f90005
:100600004f00be00004006000040da000000fe007f
:0406100000000500e1
:020000040000fa
:100614000200fa0021e3a9000080eb0060198800c1
:10062400c8e2a800c902a900113a8000f00b20001a
:100634000081600060042000710520002374200004
:1006440080497800814978008249780041368000e9
:1006540000fe2f000080600040368800103a8000c1
:10066400000178000260a0006004200071052000f1
:1006740023742000804978008149780082497800f9
:100684000000eb00000f7800010037001e0fe800a7
:10069400f05227009e007800808f5000fbff34004a
:1006a4000080fa00000006000200fa00000f780043
:1006b4000421ef0004c1a90021088000f0fc2f00f0
:1006c400008060000050a000200888000421a900d8
:1006d4000021ef001e00e900100888008460a900d2
:1006e40021058000f0ff28000080600000e0a000e9
:1006f400200588009460a80005e1a9000080fa00a4
:10070400000006000000fa0005e1a8000080fa00dd
:10071400000006000000fa0020012000303a8800a2
:10072400213a800000fe2f0000806000203a8800fb
:10073400213a8000f0f32f0000806000203a880006
:1007440000000000113a80000002200000806000d8
:100754000000e000fbff3200adff0700a08621008f
:0c076400d1ff0700e7ff0700ffff370090
:020000040000fa
:10077000000800000200000000000000000000006f
:020000040000fa
:0200000401f009
:04000000ffff0000fe
:020000040000fa
:0200000401f009
:04000800ffff0000f6
:020000040000fa
:0200000401f009
:04000c00830000006d
:020000040000fa
:0200000401f009
:040010008600000066
:020000040000fa
:0200000401f009
:040014005000000098
:020000040000fa
:0200000401f009
:04001800f0000000f4
:020000040000fa
:0200000401f009
:04001c00dfff000002
:00000001FF
